:020000040000FA
:1000000098020020D5000000C50F00003B0C000046
:1000100000000000000000000000000000000000E0
:10002000000000000000000000000000F5270000B4
:100030000000000000000000ED100000EB000000D8
:1000400025320000430C0000911A00000B0B000049
:10005000F72700000D0B00000F0B0000110B000034
:10006000130B0000E30A0000E50A0000E70A0000A5
:100070006D0700006F0700002132000023320000EE
:10008000330C0000350C0000370C0000390C000068
:1000900075070000B1070000B30700003F0C000027
:1000A000410C0000F1270000F3270000DD290000CB
:1000B000DF290000C52A000071070000ED000000E4
:1000C0000348854600F040FB00480047D538000053
:1000D0009802002006490868854606488047064879
:1000E0000047FEE7FEE7FEE7FEE7FEE7FEE700006B
:1000F00000000000A1290000C100000030B50B463F
:10010000014600202022012409E00D46D5409D42F1
:1001100005D31D469540491B254695404019154677
:10012000521E002DF1DC30BD70B50024254600289C
:1001300001DA01244042002901DA01254942FFF792
:10014000DDFFAC4200D04042002C00D0494270BDDF
:1001500003460B439B0703D009E008C9121F08C0E0
:10016000042AFAD203E00B780370401C491C521E8B
:10017000F9D27047D2B201E00270401C491EFBD296
:1001800070470022F6E710B513460A4604461946A2
:10019000FFF7F0FF204610BDF8B502464A40D40FE5
:1001A00042004B0052085B089A4202D202460846BF
:1001B00011464A0023D0C30D4A00DDB2120EAD1A1B
:1001C000202D35DA49020126490AF6058A19002C44
:1001D00000D0524220214F1B1146B9402A4110182D
:1001E000C20D9A4221D0002C17D0012D08DCDA056F
:1001F000801AD20F8019D207DBB200F00DFAF8BDD9
:10020000DA05801A012340001B06C01880185A42E4
:100210008018CA0F1043490007E04908C20711437C
:10022000DA05801A80194008801800F0EDF9F8BD51
:1002300061000122511A001BF7E70122D207514049
:10024000AAE70122D2075040A6E7024670B54A400D
:10025000D30FDB0740002DD04A002AD0010E140E28
:10026000000212020919400A520A8418E5010446E4
:100270005443000A120A2E045043A4194219200CB8
:10028000C543AA18120C0125AD03521C52191204C1
:100290007F39240400D0521C104301D44000491E71
:1002A000C2B20C06C0092018401C4008802A02D0A7
:1002B00003E0002070BD40084000002900DA002063
:1002C000184370BD70B502464A40D50F40004A0041
:1002D000ED0740085208002814D0002A12D0C40D9F
:1002E000D30D41020120C0055202490A520AE41A04
:1002F000091812187D34914201D3641C00E04900B2
:10030000002C01DA002070BD0023914201D3891A2C
:100310000343400849000028F7D100290AD0914240
:1003200002D10121C90705E0914201D2012101E07A
:100330000121C943E005C018401900F065F970BDFE
:10034000F0B507460846584087B0C00F04904800F3
:100350000E46590040084908BC1A884105D2384663
:1003600031461E4617460B460246580040081043C9
:100370004CD0300D039040055900400D490D0590BB
:10038000401A0290402872DA18030121000B090577
:100390000843019004980092002805D00199524228
:1003A0000020884100920190029840210A1A019988
:1003B000009800F0F5F805460C466B4607CB00F0B8
:1003C00010F9C0197141039A0E0D0023D71756403A
:1003D0001A467A40164344D0049A002A2DD0029A35
:1003E000012A039A15DC1205C01A9141012636052F
:1003F000001C7141D20F059ED20700930192029614
:100400002A46234600F04EF907B0F0BD3846314683
:10041000FAE71605224A0F46B218C01AB741012161
:100420000905001C4F4100187F41114618187941F9
:10043000E20F10436D19644113E0E2076D081543A4
:100440006408C2071443039A01261205C01A914199
:100450003605001C7141CE07400830434908C018DA
:1004600051412A46234600F010F9CDE7FFE70498F2
:1004700001224000C117121A00238B410498314613
:10048000C417381AA141EEE730B40124E4076340F1
:1004900030BC55E730B40124E407614030BC4FE77D
:1004A0000000E0FF10B500229623114600F0B4F8DA
:1004B00010BD410040020122400AD205090E8018F9
:1004C0007F2901DA00207047962903DC9622511A11
:1004D000C840704796398840704700004A000903B9
:1004E0000123090B1B051943094B10B5520D9A4204
:1004F00001DA002010BD064B34339A4203DC9A1A0D
:1005000000F05EF810BD03495118884010BD00008E
:10051000FF030000CDFBFFFFC20FD20740004008E1
:100520000BD0C10D0723DB01C91840020905400AA1
:100530001143C2084007114370470020014670472D
:10054000F0B51FB40646002082B005464024019154
:1005500000901BE0019922460F46304600F030F82B
:10056000049A059B801A994110D3104619462246D9
:1005700000F016F8361A8F4101972246012000211B
:10058000009F00F00DF838184D4100902046641E81
:100590000028DFDC019B00982946324607B0F0BDF9
:1005A00010B5202A04DB0146203A9140002010BDFE
:1005B000914020239C1A0346E3401943904010BD0C
:1005C00010B5202A04DB0846203AD040002110BD97
:1005D0000B46D340D0402024A21A9140084319462C
:1005E00010BD10B5202A06DBCB170846203A104173
:1005F000C1170B4306E00B461341D0402024A21A3A
:1006000091400843194610BD002904DA401C4900F6
:1006100001D140084000704770B40024050C05D19A
:100620001024000402D1002921D01124050E01D18B
:1006300000020834050F01D10001241D850F01D1EE
:100640008000A41C002801DB4000641C002908D0A5
:1006500020252E1B0D46F540A14000D00121294345
:10066000084301061B1B000ADB1D02D5002070BCDD
:100670007047DB05181880180029F8DA401C49007B
:10068000F5D170BC40084000704710B5002B08DA67
:100690000024401C614192185B411A4301D140087B
:1006A000400010BDF0B51FB482B005460C0003D069
:1006B000084602F0C9FD02E002F0C6FD2030024605
:1006C000009021462846FFF76BFF049B059A0446DD
:1006D0000F4618431143084314D0184610431BD04B
:1006E000009840210A1A18460599FFF769FF054648
:1006F0000E46009A05990498FFF752FF084305D06B
:10070000012004E02046394607B0F0BD0020C117A3
:1007100005430E432C43374300990E986305401A56
:100720007905E40A00220C43FD0A0A3002D50020B4
:100730000146E9E70105101969410C9C0D9D00195E
:100740006941FFF7A2FFDFE7064C0125064E05E0F1
:10075000E36807CC2B430C3C98471034B442F7D3E2
:10076000FFF7B2FCFC3D00001C3E000070477047E4
:100770007047000010B501210B4800F0BBF80028BD
:1007800010D00A480088401C0849088008460088A4
:10079000322803D10020088002F0B6F80121024877
:1007A00000F008F810BD0000004801400A000020D9
:1007B0007047704770B504460D460F48844205D017
:1007C0000E48844202D00E48844200D104E0FF214A
:1007D00060310CA002F0F4FF13482840002802D139
:1007E000002D00D004E0FF21613106A002F0E8FFF7
:1007F000E069A843E06170BD004801400049014044
:10080000004A01402E2E5C4C696272617269657308
:100810005C7372635C637733326C3038335F62745D
:10082000696D2E6300000000F8FF000070B50446FB
:100830000D461148844205D01048844202D0104829
:10084000844200D103E065210EA002F0B9FF002D23
:1008500001D0012D00D103E066210AA002F0B0FF13
:10086000002D04D0206901210843206103E02069A4
:1008700040084000206170BD00480140004901402F
:10088000004A01402E2E5C4C696272617269657388
:100890005C7372635C637733326C3038335F6274DD
:1008A000696D2E63000000001CB5002000900190CF
:1008B0000D48406B0121090308430B49486300219F
:1008C00068464180094981800F21018069460848B6
:1008D00000F09AF801221146054800F04BF801217A
:1008E0000348FFF7A3FF1CBD000001404FC30000F9
:1008F0000048014070B504460D461148844205D0B9
:100900001048844202D01048844200D104E0FF2104
:100910004F310EA002F054FF15482840002802D1A4
:10092000002D00D004E0FF21503108A002F048FF64
:10093000A0692840002801D0012070BD0020FCE7FC
:100940000048014000490140004A01402E2E5C4C05
:1009500069627261726965735C7372635C63773339
:10096000326C3038335F6274696D2E6300000000B2
:10097000F8FF000070B504460D461646154884423F
:1009800005D01548844202D01448844200D103E0C7
:10099000742113A002F014FF002E01D0012E00D10B
:1009A00003E075210EA002F00BFF16482840002836
:1009B00002D1002D00D003E0762109A002F000FF53
:1009C000002E03D060692843606102E06069A8439B
:1009D000606170BD0048014000490140004A01408B
:1009E0002E2E5C4C69627261726965735C7372630E
:1009F0005C637733326C3038335F6274696D2E63B9
:100A000000000000F8FF000070B505460C461A48CB
:100A1000854205D01948854202D01948854200D147
:100A200003E0482117A002F0CBFE6088002808D020
:100A30006088022805D06088042802D060880628D3
:100A400000D103E049210FA002F0BAFE2088164928
:100A5000884200DC03E04A210AA002F0B1FE60886F
:100A6000E188084329692622914308432861A08828
:100A700028602088686270BD00480140004901403C
:100A8000004A01402E2E5C4C696272617269657386
:100A90005C7372635C637733326C3038335F6274DB
:100AA000696D2E6300000000FFFF000010B50146D5
:100AB00000BF0B071B0FF0220A4012110A246243E9
:100AC0009B180F2212020A401212642462439B18E0
:100AD0000F2212030A4012137D24E4006243981887
:100AE00010BD7047704770470EB500200090019010
:100AF000029000900420019000200290684600F0CF
:100B0000B1FA00F0F1FA0EBD7047704770477047B8
:100B1000704770470EB500200090019002900A487F
:100B2000006B1021884310300749086301200090B2
:100B30002020019069460920C00600F009F8012034
:100B40000249C8610EBD000000000140400000489D
:100B50004A68002A04D1C2690B681A43C26167E07F
:100B6000C2690B689A43C26110234A681A40102A6E
:100B70004ED102680B681A4302604A68112A07D1F5
:100B800002690B681A430261C2680B689A43C2602B
:100B90004A68122A07D1C2680B681A43C260026908
:100BA0000B689A430261426A0B689A434262826A06
:100BB0000B689A438262C26A0B689A43C262026BF4
:100BC0000B689A43026381238A681A40812A03D101
:100BD000426A0B681A43426282238A681A40822A58
:100BE00003D1826A0B681A43826284238A681A409E
:100BF000842A03D1C26A0B681A43C26288238A68B6
:100C00001A40882A14D1026B0B681A4302630FE062
:100C100002680B689A4302604A68202A04D142683D
:100C20000B689A43426003E042680B681A434260D3
:100C30007047704770477047704700BFFEE77047C6
:100C40007047704710B5E120400201F0D5FD10BD9E
:100C500010B5002400F00EF80446002004E0002146
:100C6000034A1154411CC8B21C28F8DB204610BDB1
:100C7000680000201CB56F4800787E2801D0002055
:100C80001CBD6C484078102869D16B4800780C284E
:100C900005D00021102000F043F90020F0E765485E
:100CA000C07AE72805D00021102000F039F9002093
:100CB000E6E76048407A00025E4A927A10430146B5
:100CC0005EA002F0B1FA61A002F0AEFA002407E0E3
:100CD000584AA01C115C62A002F0A6FA601CC4B2C3
:100CE000072CF5DB08225F496846FFF731FA072138
:100CF0005048801C019B009A02F063FD0446214687
:100D000059A002F091FA082256496846FFF720FAE6
:100D100007214848801C019B009A02F052FD45497A
:100D2000497A0902434A927A1143884205D0002148
:100D3000102000F0F5F80020A2E700240BE03D4968
:100D4000A01C085C4C4908550846015D44A002F00F
:100D50006BFA601CC4B2072CF1DB012090E7354828
:100D600040780A2864D134480078182805D000213A
:100D70000A2000F0D5F8002082E72E48C07DE72841
:100D800005D000210A2000F0CBF8002078E72948A0
:100D9000407D0002274A927D1043014627A002F0C1
:100DA00043FA2AA002F040FA002407E0214AA01CDE
:100DB000115C2BA002F038FA601CC4B2132CF5DBD6
:100DC000082228496846FFF7C3F913211948801CF7
:100DD000019B009A02F0F5FC0446214622A002F095
:100DE00023FA08221F496846FFF7B2F91321114878
:100DF000801C019B009A02F0E4FC0E49497D090227
:100E00000C4A927D1143884205D000210A2000F04F
:100E100087F8002034E7002006E0064A811C515C78
:100E2000164A1154411CC8B21328F6DB022027E7EA
:100E3000002025E768000020440000204F2D637249
:100E40006331363A25780D0A000000004D65737352
:100E50006167655F526563656976653A0000000009
:100E600025782000E03D0000432D63726331363A5F
:100E700025780D0A000000003B00002084000020BF
:100E800010B50024322002F0F5FC0020184908704B
:100E9000184800781849087000201649087016484C
:100EA000017816A002F0C0F900BF06E01848015D05
:100EB00018A002F0B9F9601CC4B20F48007884424F
:100EC000F4DB15A002F0B0F9002405E01048005D45
:100ED00012490855601CC4B21C2CF7DB002404E046
:100EE00000200B490855601CC4B21C2CF8DB10BD57
:100EF000420000204300002044000020526563654A
:100F00006976655F4E756D3A25640D0A0000000034
:100F10004C000020257820000D0A00006800002009
:100F200070B505460C46102D14D1012C08D123496B
:100F3000487001208870C020C870C120087120E06E
:100F4000002C1ED110201D49487000208870C870E8
:100F5000087116E00A2D14D1012C09D10A20174975
:100F6000487001208870C020C870C120087108E056
:100F7000002C06D10A201149487000208870C870E2
:100F8000087100260DE00D48815D0D4802F0C0F8A3
:100F900000BF01210A4801F007FE0028F9D0701CAB
:100FA000C6B2062EEFDB002004E00022034B411CFA
:100FB0005A54C8B20428F8DB70BD00003400002089
:100FC00000480040704710B572B6142002F062F974
:100FD0000021022002F06EF9022002F05BF90021EC
:100FE0001D2002F067F91D2002F054F962B610BD11
:100FF000F8B5044600257D21C9002046FFF794F886
:1010000007037D21C9002046FFF78EF80E466421B4
:101010003046FFF789F8000207437D21C9002046CA
:10102000FFF782F8009164210098FFF77DF80E46E3
:101030000A213046FFF778F8000107437D21C900F7
:101040002046FFF771F8009164210098FFF76CF8D3
:101050000E460A213046FFF767F80F43BDB2284617
:10106000F8BD000010B504462068002802D02068B2
:10107000102800D103E0502112A002F0A1FB60680B
:10108000002802D06068042800D103E051210DA09F
:1010900002F096FBA068002802D0A068022800D1C8
:1010A00003E0522107A002F08BFB6168206808432F
:1010B000A16808430B49096916229143084309496D
:1010C000086110BD2E2E5C4C696272617269657395
:1010D0005C7372635C637733326C3038335F707784
:1010E000722E630000ED00E030BF704770470000D3
:1010F00070B504460D460C482040002802D1002C53
:1011000000D003E009490AA002F05AFB002D05D0E7
:101110000F48806B20430E49886304E00C48806BC5
:10112000A0430B49886370BD0146FFFFC702000062
:101130002E2E5C4C69627261726965735C737263B6
:101140005C637733326C3038335F7263632E6300D5
:101150000000014010B50446402C11D0012C0FD0E6
:10116000082C0DD0102C0BD0202C09D0FF200130E2
:10117000844205D04000844202D00748844200D116
:1011800004E00549223905A002F01AFB0B48C068AB
:10119000A0430A49C86010BD790300002E2E5C4CA4
:1011A00069627261726965735C7372635C637733E1
:1011B000326C3038335F7263632E6300400001404D
:1011C00010B5052000F014F803220C21002000F0D7
:1011D00061F801210820FFF78BFF0448806B012193
:1011E000C902884340180149886310BD00000140CE
:1011F00070B504461B4D062C0FD0082C0DD0092CC1
:101200000BD0052C09D00B2C07D00C2C05D00D2CA5
:1012100003D00E2C01D00F2C00D104E0FF2123318C
:1012200011A002F0CDFAE0021749098808431749D6
:10123000886108464068164908431449486000BF61
:10124000124880690121C9030840884204D0284619
:10125000691E8DB20028F3D1002D01D1012070BD8F
:101260000020FCE7FFFF00002E2E5C4C69627261DB
:10127000726965735C7372635C637733326C3038A8
:10128000335F7263632E6300000A100000000140A8
:1012900001005A5AF8B506460C461546394F002E3D
:1012A00001D0402E00D104E0FF21C03136A002F071
:1012B00087FA002C05D0042C03D0082C01D00C2C6C
:1012C00000D104E0FF21C1312FA002F079FA002DF6
:1012D00005D0012D03D0022D01D0032D00D104E053
:1012E000FF21C23128A002F06BFA2F48006B402189
:1012F00008432D490863002E07D12C48C0690321FB
:10130000890308432949C8611BE02848C0690121B5
:10131000890388432549C86108460068012189037B
:1013200008432249086008460069012189030840F2
:101330001E4908610846C0680121890308431B490A
:10134000C86030463021084320432843164948628C
:1013500008464068164908431349486000BF1248D0
:10136000406A0121C9030840884204D03846791EEA
:101370008FB20028F3D1002F01D10120F8BD002049
:10138000FCE70000FF0F00002E2E5C4C69627261CA
:10139000726965735C7372635C637733326C303887
:1013A000335F7263632E6300000001400008004851
:1013B00050015A5AFEB504460D46164600200090CC
:1013C00001900290232C01DC592D03DD10A001F0C7
:1013D0002BFFFEBD7F20000602906846847045709A
:1013E000067069460120400200F0A2FD012148027A
:1013F00000F038F80121084600F0D2FC21460BA08D
:1014000001F012FF294610A001F00EFF00BFE0E737
:101410003D3D3D3D3D5254435F416C61726D415FC6
:10142000536574206572726F720D0A003D3D3D3D3B
:101430003D53657420616C61726D20686F75723AFE
:1014400025780D0A000000003D3D3D3D3D5365748B
:1014500020616C61726D206D696E7574653A2578D6
:101460000D0A000070B505460C46394E03204002B7
:101470002840002800D004E0FF217A3135A002F096
:101480009FF9002C01D0012C00D104E0FF217B3119
:1014900030A002F095F900BF36480068000A00024B
:1014A000CA303449086008460068000A0002533018
:1014B000086000BF0846406880210840002816D018
:1014C0002C48806840084000401C2A49886000BFC2
:1014D000284880688007C00F002804D13046711E5C
:1014E0008EB20028F4D1002E01D1012070BD012060
:1014F000400285420AD11F48C068294688436102DC
:101500002A46114008431B49C8600BE01948C068CF
:10151000012189028843A10201229202114008435D
:101520001449C86013488068400840001149886029
:1015300000BF08460068000A0002CA30086008467A
:101540000068000A00025530086000BF0020CDE7A7
:10155000FFFF00002E2E5C4C696272617269657338
:101560005C7372635C637733326C3038335F7274F0
:10157000632E6300002800400146F0200840000967
:101580000A23584302460807000F8018C0B270476C
:1015900010B5044620202040002803D1E0B24028A6
:1015A00000DA03E0AD2111A002F00AF900BF1748EC
:1015B0000068000A0002CA30144908600846006842
:1015C000000A00025330086000BFE043886300BF98
:1015D00008460068000A0002CA3008600846006831
:1015E000000A00025530086000BF10BD2E2E5C4C72
:1015F00069627261726965735C7372635C6377338D
:10160000326C3038335F7274632E63000028004000
:1016100010B50446002C01D0012C00D103E0682154
:1016200015A002F0CDF800BF1B480068000A0002B8
:10163000CA301949086008460068000A00025330A1
:10164000086000BF0846406880218843E10180228D
:10165000114008431049486000BF08460068000A6E
:101660000002CA30086008460068000A00025530CF
:10167000086000BF10BD00002E2E5C4C69627261D4
:10168000726965735C7372635C637733326C303894
:10169000335F7274632E630000280040FFB589B089
:1016A0000C4616461D46139F002007900890069092
:1016B00005900490039006A800F06EF907A800F0CA
:1016C000BDF96846417F807F019100906846037EA6
:1016D000427E817EA0A001F0A7FD6846807FAC49D4
:1016E00008706846407FAB4908706946887EFFF7FE
:1016F000DDF969468876487EFFF7D8F9694648766D
:10170000087EFFF7D3F969460876887FFFF7CEF9A0
:1017100069468877487FFFF7C9F96946487709988D
:10172000FFF7C4F9C0B209902046FFF7BFF9C4B271
:101730003046FFF7BBF9C6B22846FFF7B7F9C5B286
:101740001298FFF7B3F9C0B212906946897E0998E2
:1017500081423CDC6846817E0998814203D168461B
:10176000407EA04233DC6846817E0998814207D1E1
:101770006846407EA04203D16846007EB04226DC27
:101780006846817E099881420BD16846407EA0421E
:1017900007D16846007EB04203D16846807FA842E8
:1017A00015DC6846817E0998814216D16846407EE4
:1017B000A04212D16846007EB0420ED16846807FBA
:1017C000A8420AD16846417F1298814205DB002079
:1017D00038807880B8800DB0F0BD6846817E099869
:1017E000814237D16846407EA04233D16846007EB0
:1017F000B0422FD16846807FA84205DC6846807FD2
:10180000281A80B2049006E06846807F1821081AE2
:10181000401980B204906846417F1298814206DCEC
:101820006846417F1298401A80B203900BE06846E8
:10183000407F3C21091A1298081880B2039004983E
:10184000401E80B20490002038800498788003986D
:10185000B880C0E76846817E0998401A80B202903D
:10186000002001906846407EA04205DC6846407E2C
:10187000201A80B201900AE06846407E0C21081AC6
:10188000001980B201900298401E80B202900020A0
:1018900000906846007EB04205DC6846007E301A43
:1018A00080B200900EE06A46517E907E01F0C1FF4A
:1018B0006A46117E401A801980B200900198401E3D
:1018C00080B20190FF216E31029841431E2201989F
:1018D000504309180098081880B205906846807F28
:1018E000A84205DC6846807F281A80B204900AE08E
:1018F0006846807F1821081A401980B20490059824
:10190000401E80B205906846417F1298814206DCF5
:101910006846417F1298401A80B2039014E06846EE
:10192000407F3C21091A1298081880B2039004984D
:10193000002805D10598401E80B20590182004901B
:101940000498401E80B204900598388004987880EE
:101950000398B88000BF3EE74E6F772074696D65CD
:1019600020596561723A25782C4D6F6E74683A255E
:10197000782C4461793A25782C686F75723A25780D
:101980002C6D696E7574653A25780D0A00000000AB
:101990000C0000200D00002000210D4A516901E0DB
:1019A0000B4A51690A4A52698A42F9D10170FF22F1
:1019B00012020A40120A4270FF2212040A40120C5C
:1019C0008270072212060A40120EC2707047000091
:1019D0000028004070B50446402C09D0102C07D0D8
:1019E000082C05D0042C03D0022C01D0012C00D1EE
:1019F00003E07B2108A001F0E3FE00BF0E48456B29
:101A0000406BA842FAD128462040002801D001208E
:101A100070BD0020FCE700002E2E5C4C69627261F4
:101A2000726965735C7372635C637733326C3038F0
:101A3000335F7274632E6300002800400021134A54
:101A400052681207D20F0271104A916901E00F4AE1
:101A500091690E4A92698A42F9D13F2212040A40E2
:101A6000120C82707F2212020A40120A42704A0649
:101A7000520E02700279002A06D182785211C27089
:101A80008278D206D20E8270704700000028004093
:101A900010B500F001F810BDFEB50120FFF79AFF68
:101AA000002875D00120FFF773FD9EA001F0BCFB5C
:101AB000A248007801280FD1A148008800280CDD39
:101AC0005922A0480178A0480078FFF773FC9C4891
:101AD0000088401E9A49088079E0994800880028CB
:101AE00057D197484088002803D19548808800281E
:101AF0004FD00024002593480078FEF7D7FF904987
:101B0000898840183C280EDB8E480078FEF7CEFF0F
:101B10008B49097940183C38C5B289484088401C37
:101B20008749488007E087480078FEF7BFFF84496F
:101B300009794018C5B284480078FEF7B7FF80499C
:101B400049884018182809DB7F480078FEF7AEFF67
:101B50007B49897840181838C4B207E07A48007881
:101B6000FEF7A4FF764989784018C4B22846FFF7EB
:101B70003FFAC6B22046FFF73BFAC7B259223146B8
:101B80003846FFF717FC00206D49488088801EE02A
:101B900031E06B480088002819D169484088002846
:101BA00015D167488088002811D168A001F03CFB5E
:101BB000714972480079714C01910090E378A278E4
:101BC00061782078FFF76AFD02205C4908705B4865
:101BD000007802280FD16848008800280CDD5922BF
:101BE0005848017858480078FFF7E4FB62480088BD
:101BF000401E614908808AE05F480088002856D16D
:101C00005D484088002803D15B48808800284ED07A
:101C1000002400254B480078FEF748FF5649898884
:101C200040183C280EDB47480078FEF73FFF52493A
:101C3000097940183C38C5B24F484088401C4E498D
:101C4000488007E03F480078FEF730FF4A490979AD
:101C50004018C5B23C480078FEF728FF464949883D
:101C60004018182809DB38480078FEF71FFF424962
:101C7000897840181838C4B207E033480078FEF776
:101C800015FF3D4989784018C4B22846FFF7B0F9DE
:101C9000C6B22046FFF7ACF9C7B20022314638463B
:101CA000FFF788FB00203449488088802FE03248C5
:101CB000008800282BD130484088002827D12E48A2
:101CC0008088002823D12EA001F0AEFA01203249ED
:101CD000C8610020194908703049087000BF07E04A
:101CE00000214200164B99524200234B9952401C4E
:101CF0000328F5DB002003E00021204A1154401C9A
:101D00000528F9DB0020104908700E4908704020B2
:101D1000FFF760FE002804D04020FFF739FC00F0F8
:101D2000F3FDFEBD2A2A2A2A2A2A2A2A2A416C6180
:101D3000726D212121210D0A000000000E000020FB
:101D4000100000200D0000200C0000203D3D3D3D16
:101D50003D4E6F206E65656420746F2077616974F5
:101D600020736C6565702C656E74657220736C658C
:101D700065700D0A00000000160000201C00002005
:101D80003D3D3D3D3D536C65657020656E642C6145
:101D900077616B656E0D0A00400000484500002029
:101DA00070B504460D462F4E20202040002803D158
:101DB000E0B2402800DA03E08D212BA001F000FD05
:101DC000002D01D0012D00D103E08E2126A001F0CD
:101DD000F7FC00BF2C480068000A0002CA302A49FC
:101DE000086008460068000A00025330086000BF1F
:101DF0000846806840084000401C886000BF2248B8
:101E000080688007C00F002804D13046711E8EB252
:101E10000028F4D1002E01D1012070BD002D05D184
:101E20001948006BA0431849086304E01648006B8A
:101E3000204315490863144880684008400012494F
:101E4000886000BF08460068000A0002CA300860C7
:101E500008460068000A00025530086000BF0020F4
:101E6000DBE70000FFFF00002E2E5C4C6962726110
:101E7000726965735C7372635C637733326C30389C
:101E8000335F7274632E63000028004010B504466F
:101E90002068002817D0012149022068884212D00A
:101EA0004900206888420ED0052109022068884236
:101EB00009D0032149022068884204D00721090281
:101EC0002068884200D103E052210FA001F078FC85
:101ED0001548806B08218843083013498863002027
:101EE000FFF796FB206800F0CDF82046093000F09F
:101EF00019F9201D00F084F90120FFF789FB0B4838
:101F0000FFF728F9012010BD2E2E5C4C696272612A
:101F1000726965735C7372635C637733326C3038FB
:101F2000335F7274632E6300000001407903000088
:101F300070B505460C46002601204002854202D0BD
:101F40004000854200D104E0FF212C3143A001F084
:101F500037FC4A49A0680840002800D104E0FF216E
:101F60002D313EA001F02CFC2078FFF705FB3B282B
:101F700000DC04E0FF212E3138A001F021FC607864
:101F8000FFF7FAFA3B2800DC04E0FF212F3133A0F1
:101F900001F016FC2079002810D1A078FFF7ECFAA8
:101FA000012805DBA078FFF7E7FA0C2800DC10E039
:101FB000FF21313129A001F003FC0AE0A078FFF7EE
:101FC000DBFA172800DC04E0FF21333123A001F005
:101FD000F7FBA1780904A068084361780902084367
:101FE00021780843064600BF25480068000A000221
:101FF000CA302349086008460068000A00025330CE
:10200000086000BF0846806840084000401C8860A7
:1020100000BF1B4880688007C00F0028F9D001204E
:102020004002854202D11648C66101E014480662AA
:1020300013488068400840001149886000BF084686
:102040000068000A0002CA30086008460068000AFA
:1020500000025530086000BF70BD00002E2E5C4CA1
:1020600069627261726965735C7372635C63773312
:10207000326C3038335F7274632E63007F7F7F80F1
:102080000028004010B50446002C12D00120400268
:1020900084420ED0400084420BD0052000028442CE
:1020A00007D003204002844203D00720000284426C
:1020B00000D103E0114912A001F082FB00BF1848D3
:1020C0000068000A0002CA30154908600846006826
:1020D000000A00025330086000BF0846846000BF59
:1020E0000068000A0002CA30086008460068000A5A
:1020F00000025530086000BF10BD00006202000001
:102100002E2E5C4C69627261726965735C737263D6
:102110005C637733326C3038335F7274632E6300E4
:102120000028004010B50446A078FFF725FA632880
:1021300000DC03E0E02129A001F042FB6078FFF71A
:102140001BFA012805DB6078FFF716FA0C2800DC83
:1021500003E0E12121A001F033FB2078FFF70CFA26
:10216000012805DB2078FFF707FA1F2800DC03E0D1
:10217000E2211AA001F024FBE078072800DA03E04E
:10218000E32116A001F01CFB00BF1C480068000AF8
:102190000002CA301949086008460068000A0002B7
:1021A0005330086000BFE0780006A17809040843B6
:1021B000617809020843217808431049486100BF4B
:1021C00008460068000A0002CA3008600846006835
:1021D000000A00025530086000BF10BD2E2E5C4C76
:1021E00069627261726965735C7372635C63773391
:1021F000326C3038335F7274632E63000028004005
:1022000010B504462078FFF7B7F93B2800DC03E05F
:10221000BD2139A001F0D4FA6078FFF7ADF93B2871
:1022200000DC03E0BE2134A001F0CAFA20790028C6
:102230000FD1A078FFF7A0F9012805DBA078FFF700
:102240009BF90C2800DC0EE0C0212BA001F0B8FAAD
:1022500009E0A078FFF790F9172800DC03E0C2211D
:1022600025A001F0ADFA00BF2B480068000A00026B
:10227000CA302949086008460068000A0002533045
:10228000086000BF08464068082188432179C900DA
:1022900008221140084320494860207900280CD1C9
:1022A000E0784005A17809040843617809020843F1
:1022B000217808431849886108E0A0780004617813
:1022C000090208432178084313498861124880684D
:1022D000400840001049886000BF08460068000AB6
:1022E0000002CA30086008460068000A0002553043
:1022F000086000BF10BD00002E2E5C4C6962726148
:10230000726965735C7372635C637733326C303807
:10231000335F7274632E630000280040FEB50446EC
:102320000D4628785B49087068784870A8788870EE
:10233000E878C870287908715748018857A000F0DC
:1023400073FF554841885EA000F06EFF52488188B7
:1023500064A000F069FF2079E17800910190A378F2
:102360006278217868A000F05FFF4B4920790191E5
:102370000090E378A27861782078FFF78FF94648DB
:10238000018846A000F050FF434841884CA000F06F
:102390004BFF4148818853A000F046FF3E4800882B
:1023A00000286AD1002601906148017861A000F000
:1023B0003BFF6548017865A000F036FF6248007871
:1023C000FEF774FB3449898840183C280FDB5E48CF
:1023D0000078FEF76BFB3049097940183C38C0B2F1
:1023E00001902D484088401C2B49488008E0564801
:1023F0000078FEF75BFB284909794018C0B20190CC
:102400004B480078FEF752FB2349498840181828AA
:1024100009DB47480078FEF749FB1F4989784018D7
:102420001838C6B207E042480078FEF73FFB1A4969
:1024300089784018C6B23046FEF7DAFD07463946BD
:1024400048A000F0F1FE0198FEF7D2FD074639469C
:102450004AA000F0E9FE0198FEF7CAFDC7B2304677
:10246000FEF7C6FDC0B2592239460090FEF7A2FF22
:1024700000200949488088800AE007480088002831
:1024800006D059223048017829480078FEF792FF9B
:10249000FEBD00001C000020100000203D3D3D3D21
:1024A0003D446966666572656E63655F5761697410
:1024B000736C6565705B305D3A25640D0A00000041
:1024C0003D3D3D3D3D446966666572656E63655F91
:1024D00057616974736C6565705B315D3A25640D95
:1024E0000A0000003D3D3D3D3D44696666657265FC
:1024F0006E63655F57616974736C6565705B325DAF
:102500003A25640D0A000000796561722C6D6F6ECA
:1025100074682C6461792C686F75723A25782C2563
:10252000782C25782C25782C25780D0A00000000C1
:102530000C0000203D3D3D3D3D5254435F686F75AA
:10254000723A25780D0A00000D0000203D3D3D3D0A
:102550003D5254435F6D696E7574653A25780D0A76
:10256000000000003D3D3D3D3D616C61726D5F6866
:102570006F75723A25780D0A000000003D3D3D3D23
:102580003D616C61726D5F6D696E7574653A257839
:102590000D0A000070B504460D4600260FE0A05D50
:1025A0000007000F092803DCA05D0011092804DDE5
:1025B0001DA000F039FE002070BD701CC6B2AE42F6
:1025C000EDDB052D15D1207899280BDC60781228D9
:1025D00008DCA078312805DCE078232802DC2079AB
:1025E000592804DD16A000F01FFE0020E4E70120BA
:1025F000E2E7062D15D1207899280EDC60781228A4
:102600000BDCA078312808DCE078232805DC207971
:10261000592802DC6079592801DD0020CCE701202F
:10262000CAE70020C8E700003D3D3D3D3D54696DCF
:1026300065206973206E6F74204243440D0A0000C8
:102640003D3D3D3D3D54696D65206973206E6F745D
:10265000206C6567616C0D0A0000000070B50446CF
:102660000D46164620782978884204DA28A000F022
:10267000DBFD012070BD20782978884201DD002033
:10268000F8E760786978884209DA6A78617822A088
:1026900000F0CAFD27A000F0C7FD0120EAE760783E
:1026A0006978884201DD0020E4E7A078A9788842B3
:1026B00004DA22A000F0B8FD0120DBE7A078A978B9
:1026C000884201DD0020D5E7E078E978884204DA25
:1026D0001CA000F0A9FD0120CCE7E078E978884251
:1026E00001DD0020C6E720792979884204DA17A0A5
:1026F00000F09AFD0120BDE720792979884201DDAB
:102700000020B7E7012E01D10120B3E70020B1E797
:1027100074657374310D0A0074696D65315B315DE8
:102720002C74696D65325B315D3A25782C25780D06
:102730000A00000074657374320D0A0074657374C6
:10274000330D0A0074657374340D0A007465737474
:10275000350D0A001FB5044600200090019002903C
:102760000390A178684641726178817201210173FA
:102770002178C172437A827AC17A0CA000F054FDAC
:10278000E178684681712179417161790171012196
:1027900001720379427981790CA000F045FD002097
:1027A00000906846FFF772FB1FBD00002D2D2D2DF8
:1027B0002D2D2D5365742044617465206173203282
:1027C0003025782F25782F25780D0A002D2D2D2DD9
:1027D0002D2D2D5365742054696D6520617320255E
:1027E0003032783A253032783A253032780D0A0086
:1027F000704770477047704730B589B00446002075
:1028000006900790089018216846FDF7BAFC3148F9
:1028100000680006400F3049095C30480068C84035
:1028200005462C480068C006800F2B49095C2846E5
:10283000C84005462748006B202108432549086306
:102840000846006B10210843224908630846806B44
:10285000491508431F4988630920C00680690F2174
:10286000090488430121090440180921C906886127
:102870001B4880690F21090588430121090540187B
:1028800017498861102006902020079006A909208A
:10289000C006FEF75DF9202006901020079006A9DB
:1028A0000F48FEF755F90094002168468180C180E9
:1028B00002958181C1810182818203214182694621
:1028C000084800F06DFA01220421064800F00AFAD7
:1028D00009B030BD00000140E83D000000000020CC
:1028E00000040048004C004010B50446214605484D
:1028F00000F054FC00BF0121024800F055F9002807
:10290000F9D010BD004C004000B587B00020059004
:102910000690049004A8FFF73FF805A8FFF78EF88B
:102920006846017D427D007EC0000A4BC3186846A0
:10293000C07D80001B586846807D01930292039100
:1029400000906846037C427C817C03A000F06CFC14
:1029500007B000BD240000202E4461746520697317
:10296000203230253032782F253032782F25303202
:10297000782E54696D65206973202530327825736F
:102980003A253032783A253032780D0A00000000BE
:10299000014802490860704700127A0000000020D8
:1029A00000B5FFF7F5FF0B4909884805400D0A49B6
:1029B0008969C90AC9020143074A916105494988E1
:1029C0008805800D1146096A890A8902014311624E
:1029D00000BD0000000A1000000001407047704771
:1029E00030B589B004460020069007900890182161
:1029F0006846FDF7C6FB2F4800680006400F2E49C9
:102A0000095C2E480068C84005462A480068C00690
:102A1000800F2949095C2846C84005462548006BB7
:102A200010210843234908630846806B8915084331
:102A3000204988630920C00680690F210902884364
:102A4000FF3001300921C9068861084680690F21DD
:102A5000090388430121090340180921C906886137
:102A6000042006902020079006A90920C006FEF742
:102A70006FF8082006901020079006A90920C006CC
:102A8000FEF766F80094002168468180C1800295B7
:102A90008181C18101828182032141826946084886
:102AA00000F07EF901220421054800F01BF909B06D
:102AB00030BD000000000140C83D000000000020C3
:102AC0000048004010B50E480078002802D10120CF
:102AD0000C49087004210C4800F0B4F800280ED00E
:102AE000094800F0DBFA06490A780978491C044BCA
:102AF0001970064988540421034800F009F810BDF4
:102B00004300002042000020004800404C0000200C
:102B100070B504460D46144884420ED013488442D2
:102B20000BD01348844208D01248844205D0124882
:102B3000844202D01148844200D104E0FF216D316B
:102B40000FA000F03DFE17482840002802D1002DBC
:102B500000D004E0FF216E3109A000F031FE206AB0
:102B6000A843206270BD00000038014000440040CE
:102B700000480040004C004000500040001401405C
:102B80002E2E5C4C69627261726965735C7372634C
:102B90005C637733326C3038335F756172742E63E7
:102BA00000000000A1FF000070B504460D46164865
:102BB00084420ED0154884420BD01548844208D078
:102BC0001448844205D01448844202D013488442F9
:102BD00000D104E0FF21883111A000F0F1FD7F2039
:102BE00040022840002802D1002D00D004E0FF213F
:102BF00089310BA000F0E4FDE0692840002801D0F5
:102C0000012070BD0020FCE7003801400044004076
:102C100000480040004C00400050004000140140BB
:102C20002E2E5C4C69627261726965735C737263AB
:102C30005C637733326C3038335F756172742E6346
:102C40000000000070B504460D46164884420ED0C0
:102C5000154884420BD01548844208D01448844259
:102C600005D01448844202D01348844200D104E0C5
:102C7000FF21543111A000F0A3FD1948284000287D
:102C800002D1002D00D004E0FF2155310BA000F04F
:102C900097FDE0692840002801D0012070BD002088
:102CA000FCE70000003801400044004000480040BC
:102CB000004C004000500040001401402E2E5C4C9F
:102CC00069627261726965735C7372635C637733A6
:102CD000326C3038335F756172742E63000000000F
:102CE000A0FF000070B504460D4616461C488442FD
:102CF0000ED01C4884420BD01B48844208D01B488D
:102D0000844205D01A48844202D01A48844200D135
:102D100004E0FF21323118A000F052FD1F48284086
:102D2000002802D1002D00D004E0FF21333112A091
:102D300000F046FD002E01D0012E00D104E0FF215D
:102D400034310DA000F03CFD002E03D0A0682843D4
:102D5000A06004E0A068E94389B20840A06070BDAB
:102D6000003801400044004000480040004C004052
:102D700000500040001401402E2E5C4C69627261CC
:102D8000726965735C7372635C637733326C30387D
:102D9000335F756172742E6300000000A0FF0000B5
:102DA000F0B589B005460C460026002008900027A3
:102DB000A64885420ED0A64885420BD0A54885423C
:102DC00008D0A548854205D0A448854202D0A44831
:102DD000854200D103E07721A2A000F0F1FC206839
:102DE000002804D0A8492068884200D803E0782150
:102DF0009CA000F0E5FCA08800280DD0A08801214F
:102E00004902884208D0A0884900884204D0A0889E
:102E100003214902884200D103E0792191A000F00A
:102E2000CFFCE088002809D0E088012149028842CF
:102E300004D0E08803210902884200D103E07A210E
:102E400088A000F0BDFCA068002804D08F49A068CD
:102E5000884200D803E07B2182A000F0B1FCA08969
:102E6000002804D0A089FF210131884200D103E06D
:102E70007C217CA000F0A4FCE089002805D0E0893A
:102E8000202802D0E089102800D103E07D2175A020
:102E900000F096FC208A002808D0208A082805D057
:102EA000208A0C2802D0208A042800D103E07E2149
:102EB0006CA000F085FC608A75490840002803D1A9
:102EC000608A002800D003E07F2166A000F078FC33
:102ED000A08A002808D0A08A082805D0A08A042843
:102EE00002D0A08A0C2800D103E080215DA000F070
:102EF00067FCA088A1890843E1890843218A084327
:102F0000618A08432968634A114008432860E088C1
:102F1000A18A08436968C32292009143084368600C
:102F2000A08800282FD121680801FDF7BBFA07907F
:102F3000A068FDF7B7FA06900799FDF7C3F90746B1
:102F40003846FDF7B6FA86B23046FDF7ABFA394699
:102F50000190FDF776F98321C9050290FDF775F917
:102F60000390FDF7D9FA00224B4B05910490FDF731
:102F7000E7F907910690FDF7B1FA80B20890EE608C
:102F80000898286160E0A0880121490288421BD18D
:102F90002168C800FDF786FA0290A068FDF782FA62
:102FA00001900299FDF78EF90390FDF7B5FA002222
:102FB000394B05910490FDF7C3F907910690FDF791
:102FC0008DFA86B2EE603FE0A08801218902884236
:102FD0001BD121688800FDF765FA0290A068FDF713
:102FE00061FA01900299FDF76DF90390FDF794FAEB
:102FF0000022294B05910490FDF7A2F90791069054
:10300000FDF76CFA86B2EE601EE02068FDF74AFA22
:103010000290A068FDF746FA8721C9050090FDF7E8
:1030200014F901900299FDF74DF90390FDF774FA38
:103030000022194B05910490FDF782F90791069043
:10304000FDF74CFA86B2EE6009B0F0BD00380140E1
:103050000044004000480040004C00400050004048
:10306000001401402E2E5C4C6962726172696573B6
:103070005C7372635C637733326C3038335F7561D5
:1030800072742E63000000000024F4000090D0034E
:10309000FCFF0000C0F8FFFF0000E03F10B5044651
:1030A0000C4884420ED00C4884420BD00B4884421A
:1030B00008D00B48844205D00A48844202D00A480E
:1030C000844200D103E0642108A000F079FB606A2B
:1030D000C0B210BD0038014000440040004800402C
:1030E000004C004000500040001401402E2E5C4C6B
:1030F00069627261726965735C7372635C63773372
:10310000326C3038335F756172742E6300000000DA
:1031100070B504460D46114884420ED010488442D2
:103120000BD01048844208D00F48844205D00F4885
:10313000844202D00E48844200D103E035210DA024
:1031400000F03EFB1448854200DC03E0362109A074
:1031500000F036FBE805C00DA06270BD00380140EC
:103160000044004000480040004C00400050004037
:10317000001401402E2E5C4C6962726172696573A5
:103180005C7372635C637733326C3038335F7561C4
:1031900072742E6300000000FF01000070B5044649
:1031A0000D46104884420ED00F4884420BD00F4881
:1031B000844208D00E48844205D00E48844202D092
:1031C0000D48844200D103E045210CA000F0F8FA3C
:1031D000FF2D00DC03E0462108A000F0F1FAA56213
:1031E00070BD00000038014000440040004800402D
:1031F000004C004000500040001401402E2E5C4C5A
:1032000069627261726965735C7372635C63773360
:10321000326C3038335F756172742E6300000000C9
:1032200070477047704700000FB410B503A9044BF6
:10323000044A029800F08AF810BC08BC04B0184791
:103240008F380000480000202021020C01D01021FE
:103250001046020A01D010460839020901D0104672
:10326000091F820801D01046891E420801D0881E1D
:103270007047081A704730B47446641E2578641C81
:10328000AB4204D3635D5B00E31830BC18471D46B6
:10329000F8E70000002809DB00BF00BFC206D20E1D
:1032A00001219140024A116000BF00BF7047000039
:1032B00000E100E010B5002819DB1A4A03231B02C5
:1032C000D21883089B00D2588307DC0EFF23A3404B
:1032D0009A438B071B0E8407E40EA3401A43114B3D
:1032E000032424021B198408A4001A5118E00E4A72
:1032F00003071B0F083B9B089B00D2588307DC0E7B
:10330000FF23A3409A438B071B0E8407E40EA340C0
:103310001A43054B0407240F083CA408A4001A51C3
:1033200010BD000000E100E01CED00E002E008C874
:10333000121F08C1002AFAD170477047002001E02F
:1033400001C1121F002AFBD170470000FFB591B0E8
:103350000F460546002606E025280AD0149A139940
:1033600090476D1C761C28780028F5D1304615B0A2
:10337000F0BD002400940121F34A029400E00443CC
:103380006D1C2B780846203B98401042F7D12878D6
:103390002A280ED0022128780246303A092A15D868
:1033A000009A0A235A43303A80180C436D1C00904F
:1033B000F1E701CF0090002805DA01204003044323
:1033C000009840420090022004436D1C28782E286B
:1033D00015D10420044368786D1C2A280AD101CF36
:1033E0006D1C02900BE002990A22514330394018BB
:1033F0006D1C02902878014630390929F3D92878C4
:103400006C2810D006DC4C281AD068280ED06A2808
:1034100017D104E0742813D07A2812D110E00120CB
:10342000400504430CE00121090501E003210905E1
:103430000C436978814203D10120000524186D1CDA
:103440006D1C287803906E281ED00CDC632831D0C8
:1034500004DC00288AD0582811D1B2E064287BD03F
:1034600069280CD178E073282DD004DC6F2870D047
:10347000702804D1A7E075286CD078286BD0149AF6
:1034800013999047761C62E06002400F022807D033
:1034900003280AD0042838680AD006603F1D56E089
:1034A0003868F11706604160F8E738680680F5E78C
:1034B0000670F3E73878694608740020487404A859
:1034C0000390012003E0386803900020C0433F1DB3
:1034D00061070FD5002101E00199491C029A019171
:1034E000914213DA8142F7DB019A0399895C002942
:1034F000F2D10BE0002101E00199491C01918142C8
:10350000FADB019A0399895C0029F5D101990098A9
:10351000139A401A00902146149B00F03BF9019940
:103520008019461807E0039803990078491C039115
:10353000149A139990470198401E0190401CF2D1B3
:103540002146149B139A009800F014F986196D1CFB
:1035500009E741E033E034E00A20002104900591BE
:103560006002410F022905D001CFC21794460329FA
:1035700005D007E0FF1DFF08FF0003CF06E000B203
:10358000C2179446042902D140B2C1178C460022CA
:103590006146944506DA0A460021404291418C4634
:1035A0002D2102E0210504D52B216A461176012147
:1035B00003E0E10701D02021F7E7019154E00A2060
:1035C0000BE0102009E010200490002104200443A7
:1035D00008200591029003E0082000210591049045
:1035E0006002410F022905D001CF00229446032931
:1035F00006D006E0FF1DFF08FF0003CF8C4603E066
:1036000080B2042900D1C0B20021019121072BD53D
:103610000399702906D0049A1021059B4A401A4349
:1036200005D00EE040216A461176012108E061468E
:10363000014306D030216A46117603995176022162
:103640000191049A0821059B4A401A430CD1614616
:10365000014301D1610707D530216A461176012166
:1036600001910299491E02910399582904D037A16A
:1036700003910FA90F910DE039A1F9E76146059B70
:10368000049AFCF75DFF039B8C469B5C0F9A521ECD
:103690000F92137061460143F0D10F9807A9081AE1
:1036A00020300390600704D5012000048443029871
:1036B00001E0012002900399884201DD401A00E0F8
:1036C000002041180290019809180098401A0090B3
:1036D000E00306D42146149B139A009800F05AF890
:1036E00086190020049008E006A9085C149A139932
:1036F00090470498401C761C049001998842F3DBA3
:10370000E0030CD52146149B139A009800F042F870
:10371000861904E0149A302013999047761C029978
:10372000481E02900029F5DC08E00F980F990078F8
:10373000491C0F91149A13999047761C0399481EBF
:1037400003900029F1DCFBE6092801003031323317
:1037500034353637383961626364656600000000CD
:1037600030313233343536373839414243444546B7
:1037700000000000F8B5044600251E4617468804E0
:1037800004D405E039462020B0476D1C641EF9D5ED
:103790002846F8BDFFB50446002581B01E46C80383
:1037A00001D5302700E02027880404D505E03846FD
:1037B0000399B0476D1C641EF9D5284605B0F0BDCD
:1037C0007047FFB581B005460E466846C48920E0C3
:1037D00028786D1C00906846807C012803D10098F1
:1037E00000F0DEFA009000980002444000270DE04F
:1037F0000120C0032040002805D060006946898967
:10380000484084B201E06004040C7F1C082FEFDB09
:10381000761E002EDCDC6846C07C012803D12046E1
:1038200000F0AAFA04466846008A4440204605B0E3
:10383000F0BD70B506460D46A81E0300FFF71BFD40
:103840000A0B1506150715150815091500BF00BF49
:1038500000BF1E240BE0304600F021F8002801D004
:103860001D2000E01C20044601E01F2400BF00BF13
:10387000204670BD08E0C721890000BF0A46491EE6
:10388000002AFBD1421E90B20028F4DC704770B5CC
:1038900004460D46E0B2FFF727F8204670BD70B52C
:1038A00004462546E017800F401980108000201A3A
:1038B00005D164212046FCF737FC002906D1FF2101
:1038C00091312046FCF730FC002901D1012070BD68
:1038D0000020FCE78AB0FDF773FCFCF7E5FFFDF77D
:1038E00019F9FDF770FBFDF7ADF9E1204002FFF794
:1038F00077F88D48FEF72EFF8CA0FFF795FC12E1BC
:103900008F480078002803D08D48007801287DD1A9
:1039100001208C49C8618C4800780128EFD1FDF75F
:10392000AFFAFDF795F98949087008460078012833
:1039300037D100200890099000BF06E0844A411C5E
:10394000515C08AA1154411CC8B20628F6DB0621B6
:1039500008A8FEF71FFE002807D100211020FDF760
:10396000DFFA7CA0FFF760FC17E008A8FEF7F2FE84
:1039700008A841790279C07801920291009008A8C4
:103980008378427801787FA0FFF74EFC0121102058
:10399000FDF7C6FA85A0FFF747FC00206B490870C9
:1039A000C1E06A48007802287BD100200890099085
:1039B000069007900490059000BF07E0884A0146F2
:1039C0000D31515C08AA1154411CC8B20628F5DB20
:1039D00000200BE0824A411C515C06AA1154804A27
:1039E000C11D515C04AA1154411CC8B20528F1DB69
:1039F000062108A8FEF7CEFD00281BD0052106A849
:103A0000FEF7C8FD002815D0052100E07BE004A8E2
:103A1000FEF7C0FD00280DD0002204A906A8FEF77D
:103A20001DFE002806D0012206A908A8FEF716FEF2
:103A300000283BD1062108A8FEF7ACFD044621462C
:103A400068A0FFF7F1FB052106A8FEF7A3FD0446D9
:103A500021466DA0FFF7E8FB052104A8FEF79AFDBB
:103A60000446214673A0FFF7DFFB002204A906A845
:103A7000FEF7F4FD0446214679A0FFF7D5FB0122AD
:103A800006A908A8FEF7EAFD0446214683A0FFF731
:103A9000CBFB00210A20FDF743FA8DA0FFF7C4FB02
:103AA00000E026E094A0FFF7BFFB1EE008A8FEF7A9
:103AB00051FE08A841790279C078019202910090E4
:103AC00008A88378427801782EA0FFF7ADFB04A9FF
:103AD00006A8FEF723FC01210A20FDF721FA0120A8
:103AE000174908708AA0FFF79FFB0020174908704C
:103AF00019E016480078002815D11449087074A000
:103B0000FFF792FB0FE00E480078022808D18CA046
:103B1000FFF78AFB01200B498861FCF7E5FF02E013
:103B20008FA0FFF781FBEBE6040000203D3D3D3D0B
:103B30003D526573746172742E2E2E0D0A000000C2
:103B40000E000020400000484200002045000020F8
:103B50003B000020526563656976652074696D6578
:103B60002073796E6368726F6E697A6174696F6EC3
:103B7000206D65732073616765206661696C65649B
:103B80000D0A00005254435F6461746574696D6589
:103B90005F7365743A25782D25782D257820257852
:103BA0003A25783A25780D0A0000000052656365D1
:103BB0006976652074696D652073796E6368726FCC
:103BC0006E697A6174696F6E206D65737361676584
:103BD000207375636365737366756C6C790D0A0089
:103BE000840000205254435F54696D655F436865EB
:103BF000636B2853796E5F54696D652C20362920DC
:103C00003D2025640D0A00005254435F54696D65E0
:103C10005F436865636B28646174615F736C65659D
:103C2000705F73746172742C203529203D202564E7
:103C30000D0A00005254435F54696D655F43686527
:103C4000636B28646174615F736C6565705F656E3A
:103C5000642C203529203D2025640D0A0000000039
:103C60005254435F54696D655F436F6D7061726557
:103C700028646174615F736C6565705F656E642C48
:103C800020646174615F736C6565705F73746172E9
:103C90007429203D2025640D0A0000005254435F22
:103CA00054696D655F436F6D706172652853796EFD
:103CB0005F54696D652C20646174615F736C656528
:103CC000705F737461727429203D2025640D0A00B1
:103CD0005265636569766520736C65657020636FF6
:103CE0006E74726F6C206D657373616765206661B9
:103CF000696C65640D0A00005254435F54696D6538
:103D00005F436865636B206661696C65640D0A00DA
:103D10005265636569766520736C65657020636FB5
:103D20006E74726F6C206D65737361676520737557
:103D3000636365737366756C6C790D0A000000002F
:103D40003D3D3D3D3D456E74657220446565705353
:103D50006C656570204D6F64652E2E2E0D0A000077
:103D6000536C6565705F537461747573206572720E
:103D70006F720D0A0000000010B5024600210020FD
:103D800000BF0AE013460B41DB07DB0F0F24641A68
:103D9000A340034398B24B1CD9B21029F2DB10BDEB
:103DA00010B502460021002000BF0AE013460B4177
:103DB000DB07DB0F0724641AA3400343D8B24B1C74
:103DC000D9B20829F2DB10BD000102030405060781
:103DD000058000000000010105800000FFFF0101D7
:103DE0000580FFFF00000101000102030405060732
:103DF000414D0000504D0000000000001C3E00003E
:103E0000000000204C0000002C330000683E000041
:103E10004C0000204C0200003C33000000127A00ED
:103E20002306210658590000000000000000000091
:103E30000000000000000000000000000000000082
:103E4000F03D0000F43D0000F83D0000F83D0000AA
:103E50007E00000000E700000000000000000000FD
:083E600000000000000000005A
:04000005000000C136
:00000001FF
